{
  "_format": "hh-sol-artifact-1",
  "contractName": "MyCollection",
  "sourceName": "contracts/MyCollection.sol",
  "abi": [
    {
      "inputs": [
        {
          "internalType": "string",
          "name": "_name",
          "type": "string"
        },
        {
          "internalType": "string",
          "name": "_symbol",
          "type": "string"
        },
        {
          "internalType": "string",
          "name": "_initBaseURI",
          "type": "string"
        }
      ],
      "stateMutability": "nonpayable",
      "type": "constructor"
    },
    {
      "anonymous": false,
      "inputs": [
        {
          "indexed": true,
          "internalType": "address",
          "name": "owner",
          "type": "address"
        },
        {
          "indexed": true,
          "internalType": "address",
          "name": "approved",
          "type": "address"
        },
        {
          "indexed": true,
          "internalType": "uint256",
          "name": "tokenId",
          "type": "uint256"
        }
      ],
      "name": "Approval",
      "type": "event"
    },
    {
      "anonymous": false,
      "inputs": [
        {
          "indexed": true,
          "internalType": "address",
          "name": "owner",
          "type": "address"
        },
        {
          "indexed": true,
          "internalType": "address",
          "name": "operator",
          "type": "address"
        },
        {
          "indexed": false,
          "internalType": "bool",
          "name": "approved",
          "type": "bool"
        }
      ],
      "name": "ApprovalForAll",
      "type": "event"
    },
    {
      "anonymous": false,
      "inputs": [
        {
          "indexed": true,
          "internalType": "address",
          "name": "previousOwner",
          "type": "address"
        },
        {
          "indexed": true,
          "internalType": "address",
          "name": "newOwner",
          "type": "address"
        }
      ],
      "name": "OwnershipTransferred",
      "type": "event"
    },
    {
      "anonymous": false,
      "inputs": [
        {
          "indexed": true,
          "internalType": "address",
          "name": "from",
          "type": "address"
        },
        {
          "indexed": true,
          "internalType": "address",
          "name": "to",
          "type": "address"
        },
        {
          "indexed": true,
          "internalType": "uint256",
          "name": "tokenId",
          "type": "uint256"
        }
      ],
      "name": "Transfer",
      "type": "event"
    },
    {
      "inputs": [
        {
          "internalType": "address",
          "name": "to",
          "type": "address"
        },
        {
          "internalType": "uint256",
          "name": "tokenId",
          "type": "uint256"
        }
      ],
      "name": "approve",
      "outputs": [],
      "stateMutability": "nonpayable",
      "type": "function"
    },
    {
      "inputs": [
        {
          "internalType": "address",
          "name": "owner",
          "type": "address"
        }
      ],
      "name": "balanceOf",
      "outputs": [
        {
          "internalType": "uint256",
          "name": "",
          "type": "uint256"
        }
      ],
      "stateMutability": "view",
      "type": "function"
    },
    {
      "inputs": [],
      "name": "baseExtension",
      "outputs": [
        {
          "internalType": "string",
          "name": "",
          "type": "string"
        }
      ],
      "stateMutability": "view",
      "type": "function"
    },
    {
      "inputs": [],
      "name": "baseURI",
      "outputs": [
        {
          "internalType": "string",
          "name": "",
          "type": "string"
        }
      ],
      "stateMutability": "view",
      "type": "function"
    },
    {
      "inputs": [],
      "name": "cost",
      "outputs": [
        {
          "internalType": "uint256",
          "name": "",
          "type": "uint256"
        }
      ],
      "stateMutability": "view",
      "type": "function"
    },
    {
      "inputs": [
        {
          "internalType": "uint256",
          "name": "tokenId",
          "type": "uint256"
        }
      ],
      "name": "getApproved",
      "outputs": [
        {
          "internalType": "address",
          "name": "",
          "type": "address"
        }
      ],
      "stateMutability": "view",
      "type": "function"
    },
    {
      "inputs": [
        {
          "internalType": "address",
          "name": "owner",
          "type": "address"
        },
        {
          "internalType": "address",
          "name": "operator",
          "type": "address"
        }
      ],
      "name": "isApprovedForAll",
      "outputs": [
        {
          "internalType": "bool",
          "name": "",
          "type": "bool"
        }
      ],
      "stateMutability": "view",
      "type": "function"
    },
    {
      "inputs": [],
      "name": "maxMintPerOwner",
      "outputs": [
        {
          "internalType": "uint256",
          "name": "",
          "type": "uint256"
        }
      ],
      "stateMutability": "view",
      "type": "function"
    },
    {
      "inputs": [],
      "name": "maxSupply",
      "outputs": [
        {
          "internalType": "uint256",
          "name": "",
          "type": "uint256"
        }
      ],
      "stateMutability": "view",
      "type": "function"
    },
    {
      "inputs": [
        {
          "internalType": "address",
          "name": "_to",
          "type": "address"
        }
      ],
      "name": "mint",
      "outputs": [],
      "stateMutability": "payable",
      "type": "function"
    },
    {
      "inputs": [],
      "name": "name",
      "outputs": [
        {
          "internalType": "string",
          "name": "",
          "type": "string"
        }
      ],
      "stateMutability": "view",
      "type": "function"
    },
    {
      "inputs": [],
      "name": "owner",
      "outputs": [
        {
          "internalType": "address",
          "name": "",
          "type": "address"
        }
      ],
      "stateMutability": "view",
      "type": "function"
    },
    {
      "inputs": [
        {
          "internalType": "uint256",
          "name": "tokenId",
          "type": "uint256"
        }
      ],
      "name": "ownerOf",
      "outputs": [
        {
          "internalType": "address",
          "name": "",
          "type": "address"
        }
      ],
      "stateMutability": "view",
      "type": "function"
    },
    {
      "inputs": [
        {
          "internalType": "address",
          "name": "_owner",
          "type": "address"
        }
      ],
      "name": "ownerWallet",
      "outputs": [
        {
          "internalType": "uint256[]",
          "name": "",
          "type": "uint256[]"
        }
      ],
      "stateMutability": "view",
      "type": "function"
    },
    {
      "inputs": [
        {
          "internalType": "bool",
          "name": "_state",
          "type": "bool"
        }
      ],
      "name": "pause",
      "outputs": [],
      "stateMutability": "nonpayable",
      "type": "function"
    },
    {
      "inputs": [],
      "name": "paused",
      "outputs": [
        {
          "internalType": "bool",
          "name": "",
          "type": "bool"
        }
      ],
      "stateMutability": "view",
      "type": "function"
    },
    {
      "inputs": [],
      "name": "renounceOwnership",
      "outputs": [],
      "stateMutability": "nonpayable",
      "type": "function"
    },
    {
      "inputs": [
        {
          "internalType": "address",
          "name": "from",
          "type": "address"
        },
        {
          "internalType": "address",
          "name": "to",
          "type": "address"
        },
        {
          "internalType": "uint256",
          "name": "tokenId",
          "type": "uint256"
        }
      ],
      "name": "safeTransferFrom",
      "outputs": [],
      "stateMutability": "nonpayable",
      "type": "function"
    },
    {
      "inputs": [
        {
          "internalType": "address",
          "name": "from",
          "type": "address"
        },
        {
          "internalType": "address",
          "name": "to",
          "type": "address"
        },
        {
          "internalType": "uint256",
          "name": "tokenId",
          "type": "uint256"
        },
        {
          "internalType": "bytes",
          "name": "data",
          "type": "bytes"
        }
      ],
      "name": "safeTransferFrom",
      "outputs": [],
      "stateMutability": "nonpayable",
      "type": "function"
    },
    {
      "inputs": [
        {
          "internalType": "address",
          "name": "operator",
          "type": "address"
        },
        {
          "internalType": "bool",
          "name": "approved",
          "type": "bool"
        }
      ],
      "name": "setApprovalForAll",
      "outputs": [],
      "stateMutability": "nonpayable",
      "type": "function"
    },
    {
      "inputs": [
        {
          "internalType": "string",
          "name": "_newBaseExtension",
          "type": "string"
        }
      ],
      "name": "setBaseExtension",
      "outputs": [],
      "stateMutability": "nonpayable",
      "type": "function"
    },
    {
      "inputs": [
        {
          "internalType": "string",
          "name": "_newBaseURI",
          "type": "string"
        }
      ],
      "name": "setBaseURI",
      "outputs": [],
      "stateMutability": "nonpayable",
      "type": "function"
    },
    {
      "inputs": [
        {
          "internalType": "uint256",
          "name": "_newCost",
          "type": "uint256"
        }
      ],
      "name": "setCost",
      "outputs": [],
      "stateMutability": "nonpayable",
      "type": "function"
    },
    {
      "inputs": [
        {
          "internalType": "uint256",
          "name": "_newmaxMint",
          "type": "uint256"
        }
      ],
      "name": "setMaxMintPerOwner",
      "outputs": [],
      "stateMutability": "nonpayable",
      "type": "function"
    },
    {
      "inputs": [
        {
          "internalType": "bytes4",
          "name": "interfaceId",
          "type": "bytes4"
        }
      ],
      "name": "supportsInterface",
      "outputs": [
        {
          "internalType": "bool",
          "name": "",
          "type": "bool"
        }
      ],
      "stateMutability": "view",
      "type": "function"
    },
    {
      "inputs": [],
      "name": "symbol",
      "outputs": [
        {
          "internalType": "string",
          "name": "",
          "type": "string"
        }
      ],
      "stateMutability": "view",
      "type": "function"
    },
    {
      "inputs": [
        {
          "internalType": "uint256",
          "name": "index",
          "type": "uint256"
        }
      ],
      "name": "tokenByIndex",
      "outputs": [
        {
          "internalType": "uint256",
          "name": "",
          "type": "uint256"
        }
      ],
      "stateMutability": "view",
      "type": "function"
    },
    {
      "inputs": [
        {
          "internalType": "address",
          "name": "owner",
          "type": "address"
        },
        {
          "internalType": "uint256",
          "name": "index",
          "type": "uint256"
        }
      ],
      "name": "tokenOfOwnerByIndex",
      "outputs": [
        {
          "internalType": "uint256",
          "name": "",
          "type": "uint256"
        }
      ],
      "stateMutability": "view",
      "type": "function"
    },
    {
      "inputs": [
        {
          "internalType": "uint256",
          "name": "tokenId",
          "type": "uint256"
        }
      ],
      "name": "tokenURI",
      "outputs": [
        {
          "internalType": "string",
          "name": "",
          "type": "string"
        }
      ],
      "stateMutability": "view",
      "type": "function"
    },
    {
      "inputs": [],
      "name": "totalSupply",
      "outputs": [
        {
          "internalType": "uint256",
          "name": "",
          "type": "uint256"
        }
      ],
      "stateMutability": "view",
      "type": "function"
    },
    {
      "inputs": [
        {
          "internalType": "address",
          "name": "from",
          "type": "address"
        },
        {
          "internalType": "address",
          "name": "to",
          "type": "address"
        },
        {
          "internalType": "uint256",
          "name": "tokenId",
          "type": "uint256"
        }
      ],
      "name": "transferFrom",
      "outputs": [],
      "stateMutability": "nonpayable",
      "type": "function"
    },
    {
      "inputs": [
        {
          "internalType": "address",
          "name": "newOwner",
          "type": "address"
        }
      ],
      "name": "transferOwnership",
      "outputs": [],
      "stateMutability": "nonpayable",
      "type": "function"
    },
    {
      "inputs": [],
      "name": "withdraw",
      "outputs": [],
      "stateMutability": "payable",
      "type": "function"
    }
  ],
  "bytecode": "0x60806040526040518060400160405280600581526020017f2e6a736f6e000000000000000000000000000000000000000000000000000000815250600c90805190602001906200005192919062000e3d565b50655af3107a4000600d556003600e556002600f556000601060006101000a81548160ff0219169083151502179055503480156200008e57600080fd5b50604051620056b5380380620056b58339818101604052810190620000b4919062000fa2565b82828160009080519060200190620000ce92919062000e3d565b508060019080519060200190620000e792919062000e3d565b5050506200010a620000fe6200013760201b60201c565b6200013f60201b60201c565b6200011b816200020560201b60201c565b6200012e3360016200023160201b60201c565b50505062001621565b600033905090565b6000600a60009054906101000a900473ffffffffffffffffffffffffffffffffffffffff16905081600a60006101000a81548173ffffffffffffffffffffffffffffffffffffffff021916908373ffffffffffffffffffffffffffffffffffffffff1602179055508173ffffffffffffffffffffffffffffffffffffffff168173ffffffffffffffffffffffffffffffffffffffff167f8be0079c531659141344cd1fd0a4f28419497f9722a3daafe3b4186f6b6457e060405160405180910390a35050565b620002156200025760201b60201c565b80600b90805190602001906200022d92919062000e3d565b5050565b62000253828260405180602001604052806000815250620002e860201b60201c565b5050565b620002676200013760201b60201c565b73ffffffffffffffffffffffffffffffffffffffff166200028d6200035660201b60201c565b73ffffffffffffffffffffffffffffffffffffffff1614620002e6576040517f08c379a0000000000000000000000000000000000000000000000000000000008152600401620002dd9062001380565b60405180910390fd5b565b620002fa83836200038060201b60201c565b6200030f6000848484620005c760201b60201c565b62000351576040517f08c379a00000000000000000000000000000000000000000000000000000000081526004016200034890620012f8565b60405180910390fd5b505050565b6000600a60009054906101000a900473ffffffffffffffffffffffffffffffffffffffff16905090565b600073ffffffffffffffffffffffffffffffffffffffff168273ffffffffffffffffffffffffffffffffffffffff161415620003f3576040517f08c379a0000000000000000000000000000000000000000000000000000000008152600401620003ea906200135e565b60405180910390fd5b62000404816200078160201b60201c565b1562000447576040517f08c379a00000000000000000000000000000000000000000000000000000000081526004016200043e906200131a565b60405180910390fd5b6200045d600083836001620007ca60201b60201c565b6200046e816200078160201b60201c565b15620004b1576040517f08c379a0000000000000000000000000000000000000000000000000000000008152600401620004a8906200131a565b60405180910390fd5b6001600360008473ffffffffffffffffffffffffffffffffffffffff1673ffffffffffffffffffffffffffffffffffffffff16815260200190815260200160002060008282540192505081905550816002600083815260200190815260200160002060006101000a81548173ffffffffffffffffffffffffffffffffffffffff021916908373ffffffffffffffffffffffffffffffffffffffff160217905550808273ffffffffffffffffffffffffffffffffffffffff16600073ffffffffffffffffffffffffffffffffffffffff167fddf252ad1be2c89b69c2b068fc378daa952ba7f163c4a11628f55a4df523b3ef60405160405180910390a4620005c36000838360016200096060201b60201c565b5050565b6000620005f58473ffffffffffffffffffffffffffffffffffffffff166200096660201b620014ab1760201c565b1562000774578373ffffffffffffffffffffffffffffffffffffffff1663150b7a02620006276200013760201b60201c565b8786866040518563ffffffff1660e01b81526004016200064b9493929190620012a4565b602060405180830381600087803b1580156200066657600080fd5b505af19250505080156200069a57506040513d601f19601f8201168201806040525081019062000697919062000f76565b60015b62000723573d8060008114620006cd576040519150601f19603f3d011682016040523d82523d6000602084013e620006d2565b606091505b506000815114156200071b576040517f08c379a00000000000000000000000000000000000000000000000000000000081526004016200071290620012f8565b60405180910390fd5b805181602001fd5b63150b7a0260e01b7bffffffffffffffffffffffffffffffffffffffffffffffffffffffff1916817bffffffffffffffffffffffffffffffffffffffffffffffffffffffff19161491505062000779565b600190505b949350505050565b60008073ffffffffffffffffffffffffffffffffffffffff16620007ab83620009a560201b60201c565b73ffffffffffffffffffffffffffffffffffffffff1614159050919050565b620007e384848484620009e260201b620014ea1760201c565b60018111156200082a576040517f08c379a00000000000000000000000000000000000000000000000000000000081526004016200082190620013a2565b60405180910390fd5b6000829050600073ffffffffffffffffffffffffffffffffffffffff168573ffffffffffffffffffffffffffffffffffffffff1614156200087c576200087681620009e860201b60201c565b620008c4565b8373ffffffffffffffffffffffffffffffffffffffff168573ffffffffffffffffffffffffffffffffffffffff1614620008c357620008c2858262000a3160201b60201c565b5b5b600073ffffffffffffffffffffffffffffffffffffffff168473ffffffffffffffffffffffffffffffffffffffff16141562000911576200090b8162000bae60201b60201c565b62000959565b8473ffffffffffffffffffffffffffffffffffffffff168473ffffffffffffffffffffffffffffffffffffffff1614620009585762000957848262000cf660201b60201c565b5b5b5050505050565b50505050565b6000808273ffffffffffffffffffffffffffffffffffffffff16803b806020016040519081016040528181526000908060200190933c51119050919050565b60006002600083815260200190815260200160002060009054906101000a900473ffffffffffffffffffffffffffffffffffffffff169050919050565b50505050565b6008805490506009600083815260200190815260200160002081905550600881908060018154018082558091505060019003906000526020600020016000909190919091505550565b6000600162000a4b8462000d8260201b6200101b1760201c565b62000a57919062001458565b905060006007600084815260200190815260200160002054905081811462000b3d576000600660008673ffffffffffffffffffffffffffffffffffffffff1673ffffffffffffffffffffffffffffffffffffffff168152602001908152602001600020600084815260200190815260200160002054905080600660008773ffffffffffffffffffffffffffffffffffffffff1673ffffffffffffffffffffffffffffffffffffffff168152602001908152602001600020600084815260200190815260200160002081905550816007600083815260200190815260200160002081905550505b6007600084815260200190815260200160002060009055600660008573ffffffffffffffffffffffffffffffffffffffff1673ffffffffffffffffffffffffffffffffffffffff16815260200190815260200160002060008381526020019081526020016000206000905550505050565b6000600160088054905062000bc4919062001458565b905060006009600084815260200190815260200160002054905060006008838154811062000c1b577f4e487b7100000000000000000000000000000000000000000000000000000000600052603260045260246000fd5b90600052602060002001549050806008838154811062000c64577f4e487b7100000000000000000000000000000000000000000000000000000000600052603260045260246000fd5b90600052602060002001819055508160096000838152602001908152602001600020819055506009600085815260200190815260200160002060009055600880548062000cda577f4e487b7100000000000000000000000000000000000000000000000000000000600052603160045260246000fd5b6001900381819060005260206000200160009055905550505050565b600062000d0e8362000d8260201b6200101b1760201c565b905081600660008573ffffffffffffffffffffffffffffffffffffffff1673ffffffffffffffffffffffffffffffffffffffff168152602001908152602001600020600083815260200190815260200160002081905550806007600084815260200190815260200160002081905550505050565b60008073ffffffffffffffffffffffffffffffffffffffff168273ffffffffffffffffffffffffffffffffffffffff16141562000df6576040517f08c379a000000000000000000000000000000000000000000000000000000000815260040162000ded906200133c565b60405180910390fd5b600360008373ffffffffffffffffffffffffffffffffffffffff1673ffffffffffffffffffffffffffffffffffffffff168152602001908152602001600020549050919050565b82805462000e4b9062001533565b90600052602060002090601f01602090048101928262000e6f576000855562000ebb565b82601f1062000e8a57805160ff191683800117855562000ebb565b8280016001018555821562000ebb579182015b8281111562000eba57825182559160200191906001019062000e9d565b5b50905062000eca919062000ece565b5090565b5b8082111562000ee957600081600090555060010162000ecf565b5090565b600062000f0462000efe84620013f8565b620013c4565b90508281526020810184848401111562000f1d57600080fd5b62000f2a848285620014fd565b509392505050565b60008151905062000f438162001607565b92915050565b600082601f83011262000f5b57600080fd5b815162000f6d84826020860162000eed565b91505092915050565b60006020828403121562000f8957600080fd5b600062000f998482850162000f32565b91505092915050565b60008060006060848603121562000fb857600080fd5b600084015167ffffffffffffffff81111562000fd357600080fd5b62000fe18682870162000f49565b935050602084015167ffffffffffffffff81111562000fff57600080fd5b6200100d8682870162000f49565b925050604084015167ffffffffffffffff8111156200102b57600080fd5b620010398682870162000f49565b9150509250925092565b6200104e8162001493565b82525050565b600062001061826200142b565b6200106d818562001436565b93506200107f818560208601620014fd565b6200108a81620015f6565b840191505092915050565b6000620010a460328362001447565b91507f4552433732313a207472616e7366657220746f206e6f6e20455243373231526560008301527f63656976657220696d706c656d656e74657200000000000000000000000000006020830152604082019050919050565b60006200110c601c8362001447565b91507f4552433732313a20746f6b656e20616c7265616479206d696e746564000000006000830152602082019050919050565b60006200114e60298362001447565b91507f4552433732313a2061646472657373207a65726f206973206e6f74206120766160008301527f6c6964206f776e657200000000000000000000000000000000000000000000006020830152604082019050919050565b6000620011b660208362001447565b91507f4552433732313a206d696e7420746f20746865207a65726f20616464726573736000830152602082019050919050565b6000620011f860208362001447565b91507f4f776e61626c653a2063616c6c6572206973206e6f7420746865206f776e65726000830152602082019050919050565b60006200123a60358362001447565b91507f455243373231456e756d657261626c653a20636f6e736563757469766520747260008301527f616e7366657273206e6f7420737570706f7274656400000000000000000000006020830152604082019050919050565b6200129e81620014f3565b82525050565b6000608082019050620012bb600083018762001043565b620012ca602083018662001043565b620012d9604083018562001293565b8181036060830152620012ed818462001054565b905095945050505050565b60006020820190508181036000830152620013138162001095565b9050919050565b600060208201905081810360008301526200133581620010fd565b9050919050565b6000602082019050818103600083015262001357816200113f565b9050919050565b600060208201905081810360008301526200137981620011a7565b9050919050565b600060208201905081810360008301526200139b81620011e9565b9050919050565b60006020820190508181036000830152620013bd816200122b565b9050919050565b6000604051905081810181811067ffffffffffffffff82111715620013ee57620013ed620015c7565b5b8060405250919050565b600067ffffffffffffffff821115620014165762001415620015c7565b5b601f19601f8301169050602081019050919050565b600081519050919050565b600082825260208201905092915050565b600082825260208201905092915050565b60006200146582620014f3565b91506200147283620014f3565b92508282101562001488576200148762001569565b5b828203905092915050565b6000620014a082620014d3565b9050919050565b60007fffffffff0000000000000000000000000000000000000000000000000000000082169050919050565b600073ffffffffffffffffffffffffffffffffffffffff82169050919050565b6000819050919050565b60005b838110156200151d57808201518184015260208101905062001500565b838111156200152d576000848401525b50505050565b600060028204905060018216806200154c57607f821691505b6020821081141562001563576200156262001598565b5b50919050565b7f4e487b7100000000000000000000000000000000000000000000000000000000600052601160045260246000fd5b7f4e487b7100000000000000000000000000000000000000000000000000000000600052602260045260246000fd5b7f4e487b7100000000000000000000000000000000000000000000000000000000600052604160045260246000fd5b6000601f19601f8301169050919050565b6200161281620014a7565b81146200161e57600080fd5b50565b61408480620016316000396000f3fe6080604052600436106101ee5760003560e01c80636352211e1161010d578063a22cb465116100a0578063d5abeb011161006f578063d5abeb01146106e3578063da3ef23f1461070e578063dabc855e14610737578063e985e9c514610760578063f2fde38b1461079d576101ee565b8063a22cb46514610629578063b88d4fde14610652578063c66828621461067b578063c87b56dd146106a6576101ee565b80637106e551116100dc5780637106e55114610591578063715018a6146105bc5780638da5cb5b146105d357806395d89b41146105fe576101ee565b80636352211e146104d05780636a6278421461050d5780636c0360eb1461052957806370a0823114610554576101ee565b806323b872dd1161018557806344a0d68a1161015457806344a0d68a146104165780634f6ccce71461043f57806355f804b31461047c5780635c975abb146104a5576101ee565b806323b872dd1461037d5780632f745c59146103a65780633ccfd60b146103e357806342842e0e146103ed576101ee565b8063095ea7b3116101c1578063095ea7b3146102c157806313faede6146102ea5780631463e5921461031557806318160ddd14610352576101ee565b806301ffc9a7146101f357806302329a291461023057806306fdde0314610259578063081812fc14610284575b600080fd5b3480156101ff57600080fd5b5061021a60048036038101906102159190612f07565b6107c6565b604051610227919061397f565b60405180910390f35b34801561023c57600080fd5b5061025760048036038101906102529190612ede565b610840565b005b34801561026557600080fd5b5061026e610865565b60405161027b919061399a565b60405180910390f35b34801561029057600080fd5b506102ab60048036038101906102a69190612f9a565b6108f7565b6040516102b891906138f6565b60405180910390f35b3480156102cd57600080fd5b506102e860048036038101906102e39190612ea2565b61093d565b005b3480156102f657600080fd5b506102ff610a55565b60405161030c9190613c5c565b60405180910390f35b34801561032157600080fd5b5061033c60048036038101906103379190612d37565b610a5b565b604051610349919061395d565b60405180910390f35b34801561035e57600080fd5b50610367610b55565b6040516103749190613c5c565b60405180910390f35b34801561038957600080fd5b506103a4600480360381019061039f9190612d9c565b610b62565b005b3480156103b257600080fd5b506103cd60048036038101906103c89190612ea2565b610bc2565b6040516103da9190613c5c565b60405180910390f35b6103eb610c67565b005b3480156103f957600080fd5b50610414600480360381019061040f9190612d9c565b610caf565b005b34801561042257600080fd5b5061043d60048036038101906104389190612f9a565b610ccf565b005b34801561044b57600080fd5b5061046660048036038101906104619190612f9a565b610ce1565b6040516104739190613c5c565b60405180910390f35b34801561048857600080fd5b506104a3600480360381019061049e9190612f59565b610d78565b005b3480156104b157600080fd5b506104ba610d9a565b6040516104c7919061397f565b60405180910390f35b3480156104dc57600080fd5b506104f760048036038101906104f29190612f9a565b610dad565b60405161050491906138f6565b60405180910390f35b61052760048036038101906105229190612d37565b610e34565b005b34801561053557600080fd5b5061053e610f8d565b60405161054b919061399a565b60405180910390f35b34801561056057600080fd5b5061057b60048036038101906105769190612d37565b61101b565b6040516105889190613c5c565b60405180910390f35b34801561059d57600080fd5b506105a66110d3565b6040516105b39190613c5c565b60405180910390f35b3480156105c857600080fd5b506105d16110d9565b005b3480156105df57600080fd5b506105e86110ed565b6040516105f591906138f6565b60405180910390f35b34801561060a57600080fd5b50610613611117565b604051610620919061399a565b60405180910390f35b34801561063557600080fd5b50610650600480360381019061064b9190612e66565b6111a9565b005b34801561065e57600080fd5b5061067960048036038101906106749190612deb565b6111bf565b005b34801561068757600080fd5b50610690611221565b60405161069d919061399a565b60405180910390f35b3480156106b257600080fd5b506106cd60048036038101906106c89190612f9a565b6112af565b6040516106da919061399a565b60405180910390f35b3480156106ef57600080fd5b506106f8611359565b6040516107059190613c5c565b60405180910390f35b34801561071a57600080fd5b5061073560048036038101906107309190612f59565b61135f565b005b34801561074357600080fd5b5061075e60048036038101906107599190612f9a565b611381565b005b34801561076c57600080fd5b5061078760048036038101906107829190612d60565b611393565b604051610794919061397f565b60405180910390f35b3480156107a957600080fd5b506107c460048036038101906107bf9190612d37565b611427565b005b60007f780e9d63000000000000000000000000000000000000000000000000000000007bffffffffffffffffffffffffffffffffffffffffffffffffffffffff1916827bffffffffffffffffffffffffffffffffffffffffffffffffffffffff191614806108395750610838826114f0565b5b9050919050565b6108486115d2565b80601060006101000a81548160ff02191690831515021790555050565b60606000805461087490613ed9565b80601f01602080910402602001604051908101604052809291908181526020018280546108a090613ed9565b80156108ed5780601f106108c2576101008083540402835291602001916108ed565b820191906000526020600020905b8154815290600101906020018083116108d057829003601f168201915b5050505050905090565b600061090282611650565b6004600083815260200190815260200160002060009054906101000a900473ffffffffffffffffffffffffffffffffffffffff169050919050565b600061094882610dad565b90508073ffffffffffffffffffffffffffffffffffffffff168373ffffffffffffffffffffffffffffffffffffffff1614156109b9576040517f08c379a00000000000000000000000000000000000000000000000000000000081526004016109b090613bbc565b60405180910390fd5b8073ffffffffffffffffffffffffffffffffffffffff166109d861169b565b73ffffffffffffffffffffffffffffffffffffffff161480610a075750610a0681610a0161169b565b611393565b5b610a46576040517f08c379a0000000000000000000000000000000000000000000000000000000008152600401610a3d90613bdc565b60405180910390fd5b610a5083836116a3565b505050565b600d5481565b60606000610a688361101b565b905060008167ffffffffffffffff811115610aac577f4e487b7100000000000000000000000000000000000000000000000000000000600052604160045260246000fd5b604051908082528060200260200182016040528015610ada5781602001602082028036833780820191505090505b50905060005b82811015610b4a57610af28582610bc2565b828281518110610b2b577f4e487b7100000000000000000000000000000000000000000000000000000000600052603260045260246000fd5b6020026020010181815250508080610b4290613f0b565b915050610ae0565b508092505050919050565b6000600880549050905090565b610b73610b6d61169b565b8261175c565b610bb2576040517f08c379a0000000000000000000000000000000000000000000000000000000008152600401610ba9906139bc565b60405180910390fd5b610bbd8383836117f1565b505050565b6000610bcd8361101b565b8210610c0e576040517f08c379a0000000000000000000000000000000000000000000000000000000008152600401610c05906139fc565b60405180910390fd5b600660008473ffffffffffffffffffffffffffffffffffffffff1673ffffffffffffffffffffffffffffffffffffffff168152602001908152602001600020600083815260200190815260200160002054905092915050565b610c6f6115d2565b3373ffffffffffffffffffffffffffffffffffffffff166108fc479081150290604051600060405180830381858888f19350505050610cad57600080fd5b565b610cca838383604051806020016040528060008152506111bf565b505050565b610cd76115d2565b80600d8190555050565b6000610ceb610b55565b8210610d2c576040517f08c379a0000000000000000000000000000000000000000000000000000000008152600401610d2390613c1c565b60405180910390fd5b60088281548110610d66577f4e487b7100000000000000000000000000000000000000000000000000000000600052603260045260246000fd5b90600052602060002001549050919050565b610d806115d2565b80600b9080519060200190610d96929190612b5b565b5050565b601060009054906101000a900460ff1681565b600080610db983611aeb565b9050600073ffffffffffffffffffffffffffffffffffffffff168173ffffffffffffffffffffffffffffffffffffffff161415610e2b576040517f08c379a0000000000000000000000000000000000000000000000000000000008152600401610e2290613b7c565b60405180910390fd5b80915050919050565b6000610e3e610b55565b9050601060009054906101000a900460ff1615610e90576040517f08c379a0000000000000000000000000000000000000000000000000000000008152600401610e87906139dc565b60405180910390fd5b600e54600182610ea09190613d99565b1115610ee1576040517f08c379a0000000000000000000000000000000000000000000000000000000008152600401610ed890613b3c565b60405180910390fd5b600d54341015610f26576040517f08c379a0000000000000000000000000000000000000000000000000000000008152600401610f1d90613bfc565b60405180910390fd5b600f54610f328361101b565b1115610f73576040517f08c379a0000000000000000000000000000000000000000000000000000000008152600401610f6a90613b9c565b60405180910390fd5b610f8982600183610f849190613d99565b611b28565b5050565b600b8054610f9a90613ed9565b80601f0160208091040260200160405190810160405280929190818152602001828054610fc690613ed9565b80156110135780601f10610fe857610100808354040283529160200191611013565b820191906000526020600020905b815481529060010190602001808311610ff657829003601f168201915b505050505081565b60008073ffffffffffffffffffffffffffffffffffffffff168273ffffffffffffffffffffffffffffffffffffffff16141561108c576040517f08c379a000000000000000000000000000000000000000000000000000000000815260040161108390613adc565b60405180910390fd5b600360008373ffffffffffffffffffffffffffffffffffffffff1673ffffffffffffffffffffffffffffffffffffffff168152602001908152602001600020549050919050565b600f5481565b6110e16115d2565b6110eb6000611b46565b565b6000600a60009054906101000a900473ffffffffffffffffffffffffffffffffffffffff16905090565b60606001805461112690613ed9565b80601f016020809104026020016040519081016040528092919081815260200182805461115290613ed9565b801561119f5780601f106111745761010080835404028352916020019161119f565b820191906000526020600020905b81548152906001019060200180831161118257829003601f168201915b5050505050905090565b6111bb6111b461169b565b8383611c0c565b5050565b6111d06111ca61169b565b8361175c565b61120f576040517f08c379a0000000000000000000000000000000000000000000000000000000008152600401611206906139bc565b60405180910390fd5b61121b84848484611d79565b50505050565b600c805461122e90613ed9565b80601f016020809104026020016040519081016040528092919081815260200182805461125a90613ed9565b80156112a75780601f1061127c576101008083540402835291602001916112a7565b820191906000526020600020905b81548152906001019060200180831161128a57829003601f168201915b505050505081565b60606112ba82611dd5565b6112f9576040517f08c379a00000000000000000000000000000000000000000000000000000000081526004016112f090613b5c565b60405180910390fd5b6000611303611e16565b905060008151116113235760405180602001604052806000815250611351565b8061132d84611ea8565b600c604051602001611341939291906138c5565b6040516020818303038152906040525b915050919050565b600e5481565b6113676115d2565b80600c908051906020019061137d929190612b5b565b5050565b6113896115d2565b80600f8190555050565b6000600560008473ffffffffffffffffffffffffffffffffffffffff1673ffffffffffffffffffffffffffffffffffffffff16815260200190815260200160002060008373ffffffffffffffffffffffffffffffffffffffff1673ffffffffffffffffffffffffffffffffffffffff16815260200190815260200160002060009054906101000a900460ff16905092915050565b61142f6115d2565b600073ffffffffffffffffffffffffffffffffffffffff168173ffffffffffffffffffffffffffffffffffffffff16141561149f576040517f08c379a000000000000000000000000000000000000000000000000000000000815260040161149690613a3c565b60405180910390fd5b6114a881611b46565b50565b6000808273ffffffffffffffffffffffffffffffffffffffff16803b806020016040519081016040528181526000908060200190933c51119050919050565b50505050565b60007f80ac58cd000000000000000000000000000000000000000000000000000000007bffffffffffffffffffffffffffffffffffffffffffffffffffffffff1916827bffffffffffffffffffffffffffffffffffffffffffffffffffffffff191614806115bb57507f5b5e139f000000000000000000000000000000000000000000000000000000007bffffffffffffffffffffffffffffffffffffffffffffffffffffffff1916827bffffffffffffffffffffffffffffffffffffffffffffffffffffffff1916145b806115cb57506115ca82611fcc565b5b9050919050565b6115da61169b565b73ffffffffffffffffffffffffffffffffffffffff166115f86110ed565b73ffffffffffffffffffffffffffffffffffffffff161461164e576040517f08c379a000000000000000000000000000000000000000000000000000000000815260040161164590613b1c565b60405180910390fd5b565b61165981611dd5565b611698576040517f08c379a000000000000000000000000000000000000000000000000000000000815260040161168f90613b7c565b60405180910390fd5b50565b600033905090565b816004600083815260200190815260200160002060006101000a81548173ffffffffffffffffffffffffffffffffffffffff021916908373ffffffffffffffffffffffffffffffffffffffff160217905550808273ffffffffffffffffffffffffffffffffffffffff1661171683610dad565b73ffffffffffffffffffffffffffffffffffffffff167f8c5be1e5ebec7d5bd14f71427d1e84f3dd0314c0f7b2291e5b200ac8c7c3b92560405160405180910390a45050565b60008061176883610dad565b90508073ffffffffffffffffffffffffffffffffffffffff168473ffffffffffffffffffffffffffffffffffffffff1614806117aa57506117a98185611393565b5b806117e857508373ffffffffffffffffffffffffffffffffffffffff166117d0846108f7565b73ffffffffffffffffffffffffffffffffffffffff16145b91505092915050565b8273ffffffffffffffffffffffffffffffffffffffff1661181182610dad565b73ffffffffffffffffffffffffffffffffffffffff1614611867576040517f08c379a000000000000000000000000000000000000000000000000000000000815260040161185e90613a5c565b60405180910390fd5b600073ffffffffffffffffffffffffffffffffffffffff168273ffffffffffffffffffffffffffffffffffffffff1614156118d7576040517f08c379a00000000000000000000000000000000000000000000000000000000081526004016118ce90613a9c565b60405180910390fd5b6118e48383836001612036565b8273ffffffffffffffffffffffffffffffffffffffff1661190482610dad565b73ffffffffffffffffffffffffffffffffffffffff161461195a576040517f08c379a000000000000000000000000000000000000000000000000000000000815260040161195190613a5c565b60405180910390fd5b6004600082815260200190815260200160002060006101000a81549073ffffffffffffffffffffffffffffffffffffffff02191690556001600360008573ffffffffffffffffffffffffffffffffffffffff1673ffffffffffffffffffffffffffffffffffffffff168152602001908152602001600020600082825403925050819055506001600360008473ffffffffffffffffffffffffffffffffffffffff1673ffffffffffffffffffffffffffffffffffffffff16815260200190815260200160002060008282540192505081905550816002600083815260200190815260200160002060006101000a81548173ffffffffffffffffffffffffffffffffffffffff021916908373ffffffffffffffffffffffffffffffffffffffff160217905550808273ffffffffffffffffffffffffffffffffffffffff168473ffffffffffffffffffffffffffffffffffffffff167fddf252ad1be2c89b69c2b068fc378daa952ba7f163c4a11628f55a4df523b3ef60405160405180910390a4611ae68383836001612196565b505050565b60006002600083815260200190815260200160002060009054906101000a900473ffffffffffffffffffffffffffffffffffffffff169050919050565b611b4282826040518060200160405280600081525061219c565b5050565b6000600a60009054906101000a900473ffffffffffffffffffffffffffffffffffffffff16905081600a60006101000a81548173ffffffffffffffffffffffffffffffffffffffff021916908373ffffffffffffffffffffffffffffffffffffffff1602179055508173ffffffffffffffffffffffffffffffffffffffff168173ffffffffffffffffffffffffffffffffffffffff167f8be0079c531659141344cd1fd0a4f28419497f9722a3daafe3b4186f6b6457e060405160405180910390a35050565b8173ffffffffffffffffffffffffffffffffffffffff168373ffffffffffffffffffffffffffffffffffffffff161415611c7b576040517f08c379a0000000000000000000000000000000000000000000000000000000008152600401611c7290613abc565b60405180910390fd5b80600560008573ffffffffffffffffffffffffffffffffffffffff1673ffffffffffffffffffffffffffffffffffffffff16815260200190815260200160002060008473ffffffffffffffffffffffffffffffffffffffff1673ffffffffffffffffffffffffffffffffffffffff16815260200190815260200160002060006101000a81548160ff0219169083151502179055508173ffffffffffffffffffffffffffffffffffffffff168373ffffffffffffffffffffffffffffffffffffffff167f17307eab39ab6107e8899845ad3d59bd9653f200f220920489ca2b5937696c3183604051611d6c919061397f565b60405180910390a3505050565b611d848484846117f1565b611d90848484846121f7565b611dcf576040517f08c379a0000000000000000000000000000000000000000000000000000000008152600401611dc690613a1c565b60405180910390fd5b50505050565b60008073ffffffffffffffffffffffffffffffffffffffff16611df783611aeb565b73ffffffffffffffffffffffffffffffffffffffff1614159050919050565b6060600b8054611e2590613ed9565b80601f0160208091040260200160405190810160405280929190818152602001828054611e5190613ed9565b8015611e9e5780601f10611e7357610100808354040283529160200191611e9e565b820191906000526020600020905b815481529060010190602001808311611e8157829003601f168201915b5050505050905090565b606060006001611eb78461238e565b01905060008167ffffffffffffffff811115611efc577f4e487b7100000000000000000000000000000000000000000000000000000000600052604160045260246000fd5b6040519080825280601f01601f191660200182016040528015611f2e5781602001600182028036833780820191505090505b509050600082602001820190505b600115611fc1578080600190039150507f3031323334353637383961626364656600000000000000000000000000000000600a86061a8153600a8581611fab577f4e487b7100000000000000000000000000000000000000000000000000000000600052601260045260246000fd5b0494506000851415611fbc57611fc1565b611f3c565b819350505050919050565b60007f01ffc9a7000000000000000000000000000000000000000000000000000000007bffffffffffffffffffffffffffffffffffffffffffffffffffffffff1916827bffffffffffffffffffffffffffffffffffffffffffffffffffffffff1916149050919050565b612042848484846114ea565b6001811115612086576040517f08c379a000000000000000000000000000000000000000000000000000000000815260040161207d90613c3c565b60405180910390fd5b6000829050600073ffffffffffffffffffffffffffffffffffffffff168573ffffffffffffffffffffffffffffffffffffffff1614156120ce576120c9816125c5565b61210d565b8373ffffffffffffffffffffffffffffffffffffffff168573ffffffffffffffffffffffffffffffffffffffff161461210c5761210b858261260e565b5b5b600073ffffffffffffffffffffffffffffffffffffffff168473ffffffffffffffffffffffffffffffffffffffff1614156121505761214b8161277b565b61218f565b8473ffffffffffffffffffffffffffffffffffffffff168473ffffffffffffffffffffffffffffffffffffffff161461218e5761218d84826128be565b5b5b5050505050565b50505050565b6121a6838361293d565b6121b360008484846121f7565b6121f2576040517f08c379a00000000000000000000000000000000000000000000000000000000081526004016121e990613a1c565b60405180910390fd5b505050565b60006122188473ffffffffffffffffffffffffffffffffffffffff166114ab565b15612381578373ffffffffffffffffffffffffffffffffffffffff1663150b7a0261224161169b565b8786866040518563ffffffff1660e01b81526004016122639493929190613911565b602060405180830381600087803b15801561227d57600080fd5b505af19250505080156122ae57506040513d601f19601f820116820180604052508101906122ab9190612f30565b60015b612331573d80600081146122de576040519150601f19603f3d011682016040523d82523d6000602084013e6122e3565b606091505b50600081511415612329576040517f08c379a000000000000000000000000000000000000000000000000000000000815260040161232090613a1c565b60405180910390fd5b805181602001fd5b63150b7a0260e01b7bffffffffffffffffffffffffffffffffffffffffffffffffffffffff1916817bffffffffffffffffffffffffffffffffffffffffffffffffffffffff191614915050612386565b600190505b949350505050565b600080600090507a184f03e93ff9f4daa797ed6e38ed64bf6a1f0100000000000000008310612412577a184f03e93ff9f4daa797ed6e38ed64bf6a1f0100000000000000008381612408577f4e487b7100000000000000000000000000000000000000000000000000000000600052601260045260246000fd5b0492506040810190505b6d04ee2d6d415b85acef81000000008310612475576d04ee2d6d415b85acef8100000000838161246b577f4e487b7100000000000000000000000000000000000000000000000000000000600052601260045260246000fd5b0492506020810190505b662386f26fc1000083106124ca57662386f26fc1000083816124c0577f4e487b7100000000000000000000000000000000000000000000000000000000600052601260045260246000fd5b0492506010810190505b6305f5e1008310612519576305f5e100838161250f577f4e487b7100000000000000000000000000000000000000000000000000000000600052601260045260246000fd5b0492506008810190505b612710831061256457612710838161255a577f4e487b7100000000000000000000000000000000000000000000000000000000600052601260045260246000fd5b0492506004810190505b606483106125ad57606483816125a3577f4e487b7100000000000000000000000000000000000000000000000000000000600052601260045260246000fd5b0492506002810190505b600a83106125bc576001810190505b80915050919050565b6008805490506009600083815260200190815260200160002081905550600881908060018154018082558091505060019003906000526020600020016000909190919091505550565b6000600161261b8461101b565b6126259190613def565b905060006007600084815260200190815260200160002054905081811461270a576000600660008673ffffffffffffffffffffffffffffffffffffffff1673ffffffffffffffffffffffffffffffffffffffff168152602001908152602001600020600084815260200190815260200160002054905080600660008773ffffffffffffffffffffffffffffffffffffffff1673ffffffffffffffffffffffffffffffffffffffff168152602001908152602001600020600084815260200190815260200160002081905550816007600083815260200190815260200160002081905550505b6007600084815260200190815260200160002060009055600660008573ffffffffffffffffffffffffffffffffffffffff1673ffffffffffffffffffffffffffffffffffffffff16815260200190815260200160002060008381526020019081526020016000206000905550505050565b6000600160088054905061278f9190613def565b90506000600960008481526020019081526020016000205490506000600883815481106127e5577f4e487b7100000000000000000000000000000000000000000000000000000000600052603260045260246000fd5b90600052602060002001549050806008838154811061282d577f4e487b7100000000000000000000000000000000000000000000000000000000600052603260045260246000fd5b9060005260206000200181905550816009600083815260200190815260200160002081905550600960008581526020019081526020016000206000905560088054806128a2577f4e487b7100000000000000000000000000000000000000000000000000000000600052603160045260246000fd5b6001900381819060005260206000200160009055905550505050565b60006128c98361101b565b905081600660008573ffffffffffffffffffffffffffffffffffffffff1673ffffffffffffffffffffffffffffffffffffffff168152602001908152602001600020600083815260200190815260200160002081905550806007600084815260200190815260200160002081905550505050565b600073ffffffffffffffffffffffffffffffffffffffff168273ffffffffffffffffffffffffffffffffffffffff1614156129ad576040517f08c379a00000000000000000000000000000000000000000000000000000000081526004016129a490613afc565b60405180910390fd5b6129b681611dd5565b156129f6576040517f08c379a00000000000000000000000000000000000000000000000000000000081526004016129ed90613a7c565b60405180910390fd5b612a04600083836001612036565b612a0d81611dd5565b15612a4d576040517f08c379a0000000000000000000000000000000000000000000000000000000008152600401612a4490613a7c565b60405180910390fd5b6001600360008473ffffffffffffffffffffffffffffffffffffffff1673ffffffffffffffffffffffffffffffffffffffff16815260200190815260200160002060008282540192505081905550816002600083815260200190815260200160002060006101000a81548173ffffffffffffffffffffffffffffffffffffffff021916908373ffffffffffffffffffffffffffffffffffffffff160217905550808273ffffffffffffffffffffffffffffffffffffffff16600073ffffffffffffffffffffffffffffffffffffffff167fddf252ad1be2c89b69c2b068fc378daa952ba7f163c4a11628f55a4df523b3ef60405160405180910390a4612b57600083836001612196565b5050565b828054612b6790613ed9565b90600052602060002090601f016020900481019282612b895760008555612bd0565b82601f10612ba257805160ff1916838001178555612bd0565b82800160010185558215612bd0579182015b82811115612bcf578251825591602001919060010190612bb4565b5b509050612bdd9190612be1565b5090565b5b80821115612bfa576000816000905550600101612be2565b5090565b6000612c11612c0c84613ca8565b613c77565b905082815260208101848484011115612c2957600080fd5b612c34848285613e97565b509392505050565b6000612c4f612c4a84613cd8565b613c77565b905082815260208101848484011115612c6757600080fd5b612c72848285613e97565b509392505050565b600081359050612c8981613ff2565b92915050565b600081359050612c9e81614009565b92915050565b600081359050612cb381614020565b92915050565b600081519050612cc881614020565b92915050565b600082601f830112612cdf57600080fd5b8135612cef848260208601612bfe565b91505092915050565b600082601f830112612d0957600080fd5b8135612d19848260208601612c3c565b91505092915050565b600081359050612d3181614037565b92915050565b600060208284031215612d4957600080fd5b6000612d5784828501612c7a565b91505092915050565b60008060408385031215612d7357600080fd5b6000612d8185828601612c7a565b9250506020612d9285828601612c7a565b9150509250929050565b600080600060608486031215612db157600080fd5b6000612dbf86828701612c7a565b9350506020612dd086828701612c7a565b9250506040612de186828701612d22565b9150509250925092565b60008060008060808587031215612e0157600080fd5b6000612e0f87828801612c7a565b9450506020612e2087828801612c7a565b9350506040612e3187828801612d22565b925050606085013567ffffffffffffffff811115612e4e57600080fd5b612e5a87828801612cce565b91505092959194509250565b60008060408385031215612e7957600080fd5b6000612e8785828601612c7a565b9250506020612e9885828601612c8f565b9150509250929050565b60008060408385031215612eb557600080fd5b6000612ec385828601612c7a565b9250506020612ed485828601612d22565b9150509250929050565b600060208284031215612ef057600080fd5b6000612efe84828501612c8f565b91505092915050565b600060208284031215612f1957600080fd5b6000612f2784828501612ca4565b91505092915050565b600060208284031215612f4257600080fd5b6000612f5084828501612cb9565b91505092915050565b600060208284031215612f6b57600080fd5b600082013567ffffffffffffffff811115612f8557600080fd5b612f9184828501612cf8565b91505092915050565b600060208284031215612fac57600080fd5b6000612fba84828501612d22565b91505092915050565b6000612fcf83836138a7565b60208301905092915050565b612fe481613e23565b82525050565b6000612ff582613d2d565b612fff8185613d5b565b935061300a83613d08565b8060005b8381101561303b5781516130228882612fc3565b975061302d83613d4e565b92505060018101905061300e565b5085935050505092915050565b61305181613e35565b82525050565b600061306282613d38565b61306c8185613d6c565b935061307c818560208601613ea6565b61308581613fe1565b840191505092915050565b600061309b82613d43565b6130a58185613d7d565b93506130b5818560208601613ea6565b6130be81613fe1565b840191505092915050565b60006130d482613d43565b6130de8185613d8e565b93506130ee818560208601613ea6565b80840191505092915050565b6000815461310781613ed9565b6131118186613d8e565b9450600182166000811461312c576001811461313d57613170565b60ff19831686528186019350613170565b61314685613d18565b60005b8381101561316857815481890152600182019150602081019050613149565b838801955050505b50505092915050565b6000613186602d83613d7d565b91507f4552433732313a2063616c6c6572206973206e6f7420746f6b656e206f776e6560008301527f72206f7220617070726f766564000000000000000000000000000000000000006020830152604082019050919050565b60006131ec601883613d7d565b91507f4d696e742069732063757272656e746c792070617573656400000000000000006000830152602082019050919050565b600061322c602b83613d7d565b91507f455243373231456e756d657261626c653a206f776e657220696e646578206f7560008301527f74206f6620626f756e64730000000000000000000000000000000000000000006020830152604082019050919050565b6000613292603283613d7d565b91507f4552433732313a207472616e7366657220746f206e6f6e20455243373231526560008301527f63656976657220696d706c656d656e74657200000000000000000000000000006020830152604082019050919050565b60006132f8602683613d7d565b91507f4f776e61626c653a206e6577206f776e657220697320746865207a65726f206160008301527f64647265737300000000000000000000000000000000000000000000000000006020830152604082019050919050565b600061335e602583613d7d565b91507f4552433732313a207472616e736665722066726f6d20696e636f72726563742060008301527f6f776e65720000000000000000000000000000000000000000000000000000006020830152604082019050919050565b60006133c4601c83613d7d565b91507f4552433732313a20746f6b656e20616c7265616479206d696e746564000000006000830152602082019050919050565b6000613404602483613d7d565b91507f4552433732313a207472616e7366657220746f20746865207a65726f2061646460008301527f72657373000000000000000000000000000000000000000000000000000000006020830152604082019050919050565b600061346a601983613d7d565b91507f4552433732313a20617070726f766520746f2063616c6c6572000000000000006000830152602082019050919050565b60006134aa602983613d7d565b91507f4552433732313a2061646472657373207a65726f206973206e6f74206120766160008301527f6c6964206f776e657200000000000000000000000000000000000000000000006020830152604082019050919050565b6000613510602083613d7d565b91507f4552433732313a206d696e7420746f20746865207a65726f20616464726573736000830152602082019050919050565b6000613550602083613d7d565b91507f4f776e61626c653a2063616c6c6572206973206e6f7420746865206f776e65726000830152602082019050919050565b6000613590601983613d7d565b91507f4e6f7420656e6f756768204e4654732072656d61696e696e67000000000000006000830152602082019050919050565b60006135d0602f83613d7d565b91507f4552433732314d657461646174613a2055524920717565727920666f72206e6f60008301527f6e6578697374656e7420746f6b656e00000000000000000000000000000000006020830152604082019050919050565b6000613636601883613d7d565b91507f4552433732313a20696e76616c696420746f6b656e20494400000000000000006000830152602082019050919050565b6000613676602983613d7d565b91507f596f75206f776e20656e6f756768204348582c206c6561766520736f6d65206660008301527f6f72206f746865727300000000000000000000000000000000000000000000006020830152604082019050919050565b60006136dc602183613d7d565b91507f4552433732313a20617070726f76616c20746f2063757272656e74206f776e6560008301527f72000000000000000000000000000000000000000000000000000000000000006020830152604082019050919050565b6000613742603d83613d7d565b91507f4552433732313a20617070726f76652063616c6c6572206973206e6f7420746f60008301527f6b656e206f776e6572206f7220617070726f76656420666f7220616c6c0000006020830152604082019050919050565b60006137a8601683613d7d565b91507f506c6561736520636865636b20746865207072696365000000000000000000006000830152602082019050919050565b60006137e8602c83613d7d565b91507f455243373231456e756d657261626c653a20676c6f62616c20696e646578206f60008301527f7574206f6620626f756e647300000000000000000000000000000000000000006020830152604082019050919050565b600061384e603583613d7d565b91507f455243373231456e756d657261626c653a20636f6e736563757469766520747260008301527f616e7366657273206e6f7420737570706f7274656400000000000000000000006020830152604082019050919050565b6138b081613e8d565b82525050565b6138bf81613e8d565b82525050565b60006138d182866130c9565b91506138dd82856130c9565b91506138e982846130fa565b9150819050949350505050565b600060208201905061390b6000830184612fdb565b92915050565b60006080820190506139266000830187612fdb565b6139336020830186612fdb565b61394060408301856138b6565b81810360608301526139528184613057565b905095945050505050565b600060208201905081810360008301526139778184612fea565b905092915050565b60006020820190506139946000830184613048565b92915050565b600060208201905081810360008301526139b48184613090565b905092915050565b600060208201905081810360008301526139d581613179565b9050919050565b600060208201905081810360008301526139f5816131df565b9050919050565b60006020820190508181036000830152613a158161321f565b9050919050565b60006020820190508181036000830152613a3581613285565b9050919050565b60006020820190508181036000830152613a55816132eb565b9050919050565b60006020820190508181036000830152613a7581613351565b9050919050565b60006020820190508181036000830152613a95816133b7565b9050919050565b60006020820190508181036000830152613ab5816133f7565b9050919050565b60006020820190508181036000830152613ad58161345d565b9050919050565b60006020820190508181036000830152613af58161349d565b9050919050565b60006020820190508181036000830152613b1581613503565b9050919050565b60006020820190508181036000830152613b3581613543565b9050919050565b60006020820190508181036000830152613b5581613583565b9050919050565b60006020820190508181036000830152613b75816135c3565b9050919050565b60006020820190508181036000830152613b9581613629565b9050919050565b60006020820190508181036000830152613bb581613669565b9050919050565b60006020820190508181036000830152613bd5816136cf565b9050919050565b60006020820190508181036000830152613bf581613735565b9050919050565b60006020820190508181036000830152613c158161379b565b9050919050565b60006020820190508181036000830152613c35816137db565b9050919050565b60006020820190508181036000830152613c5581613841565b9050919050565b6000602082019050613c7160008301846138b6565b92915050565b6000604051905081810181811067ffffffffffffffff82111715613c9e57613c9d613fb2565b5b8060405250919050565b600067ffffffffffffffff821115613cc357613cc2613fb2565b5b601f19601f8301169050602081019050919050565b600067ffffffffffffffff821115613cf357613cf2613fb2565b5b601f19601f8301169050602081019050919050565b6000819050602082019050919050565b60008190508160005260206000209050919050565b600081519050919050565b600081519050919050565b600081519050919050565b6000602082019050919050565b600082825260208201905092915050565b600082825260208201905092915050565b600082825260208201905092915050565b600081905092915050565b6000613da482613e8d565b9150613daf83613e8d565b9250827fffffffffffffffffffffffffffffffffffffffffffffffffffffffffffffffff03821115613de457613de3613f54565b5b828201905092915050565b6000613dfa82613e8d565b9150613e0583613e8d565b925082821015613e1857613e17613f54565b5b828203905092915050565b6000613e2e82613e6d565b9050919050565b60008115159050919050565b60007fffffffff0000000000000000000000000000000000000000000000000000000082169050919050565b600073ffffffffffffffffffffffffffffffffffffffff82169050919050565b6000819050919050565b82818337600083830152505050565b60005b83811015613ec4578082015181840152602081019050613ea9565b83811115613ed3576000848401525b50505050565b60006002820490506001821680613ef157607f821691505b60208210811415613f0557613f04613f83565b5b50919050565b6000613f1682613e8d565b91507fffffffffffffffffffffffffffffffffffffffffffffffffffffffffffffffff821415613f4957613f48613f54565b5b600182019050919050565b7f4e487b7100000000000000000000000000000000000000000000000000000000600052601160045260246000fd5b7f4e487b7100000000000000000000000000000000000000000000000000000000600052602260045260246000fd5b7f4e487b7100000000000000000000000000000000000000000000000000000000600052604160045260246000fd5b6000601f19601f8301169050919050565b613ffb81613e23565b811461400657600080fd5b50565b61401281613e35565b811461401d57600080fd5b50565b61402981613e41565b811461403457600080fd5b50565b61404081613e8d565b811461404b57600080fd5b5056fea264697066735822122045374a632306bbfd09e13b6ecf5dc9b163d2fa443478d5f1e7fba7f6bb0210d164736f6c63430008000033",
  "linkReferences": {},
  "deployedLinkReferences": {}
}